{
  "abi": [
    {
      "inputs": [
        {
          "internalType": "string",
          "name": "fileCID",
          "type": "string"
        },
        {
          "internalType": "string",
          "name": "outcome",
          "type": "string"
        }
      ],
      "name": "addInputFile",
      "outputs": [],
      "stateMutability": "nonpayable",
      "type": "function"
    },
    {
      "inputs": [
        {
          "internalType": "address",
          "name": "user",
          "type": "address"
        }
      ],
      "name": "getUserFiles",
      "outputs": [
        {
          "components": [
            {
              "internalType": "string",
              "name": "fileCID",
              "type": "string"
            },
            {
              "internalType": "string",
              "name": "outcome",
              "type": "string"
            }
          ],
          "internalType": "struct Doctor.FileData[]",
          "name": "",
          "type": "tuple[]"
        }
      ],
      "stateMutability": "view",
      "type": "function"
    }
  ],
  "devdoc": {
    "kind": "dev",
    "methods": {},
    "version": 1
  },
  "evm": {
    "assembly": "    /* \"doctor.sol\":60:883  contract Doctor {... */\n  mstore(0x40, 0x80)\n  callvalue\n  dup1\n  iszero\n  tag_1\n  jumpi\n  0x00\n  dup1\n  revert\ntag_1:\n  pop\n  dataSize(sub_0)\n  dup1\n  dataOffset(sub_0)\n  0x00\n  codecopy\n  0x00\n  return\nstop\n\nsub_0: assembly {\n        /* \"doctor.sol\":60:883  contract Doctor {... */\n      mstore(0x40, 0x80)\n      callvalue\n      dup1\n      iszero\n      tag_1\n      jumpi\n      0x00\n      dup1\n      revert\n    tag_1:\n      pop\n      jumpi(tag_2, lt(calldatasize, 0x04))\n      shr(0xe0, calldataload(0x00))\n      dup1\n      0x1fc37922\n      eq\n      tag_3\n      jumpi\n      dup1\n      0xeb613271\n      eq\n      tag_4\n      jumpi\n    tag_2:\n      0x00\n      dup1\n      revert\n        /* \"doctor.sol\":761:880  function getUserFiles(address user) external view returns (FileData[] memory) {... */\n    tag_3:\n      tag_5\n      tag_6\n      calldatasize\n      0x04\n      tag_7\n      jump\t// in\n    tag_6:\n      tag_8\n      jump\t// in\n    tag_5:\n      mload(0x40)\n      tag_9\n      swap2\n      swap1\n      tag_10\n      jump\t// in\n    tag_9:\n      mload(0x40)\n      dup1\n      swap2\n      sub\n      swap1\n      return\n        /* \"doctor.sol\":528:678  function addInputFile(string memory fileCID, string memory outcome) external {... */\n    tag_4:\n      tag_11\n      tag_12\n      calldatasize\n      0x04\n      tag_13\n      jump\t// in\n    tag_12:\n      tag_14\n      jump\t// in\n    tag_11:\n      stop\n        /* \"doctor.sol\":761:880  function getUserFiles(address user) external view returns (FileData[] memory) {... */\n    tag_8:\n        /* \"doctor.sol\":857:872  userFiles[user] */\n      0xffffffffffffffffffffffffffffffffffffffff\n      dup2\n      and\n        /* \"doctor.sol\":857:866  userFiles */\n      0x00\n        /* \"doctor.sol\":857:872  userFiles[user] */\n      swap1\n      dup2\n      mstore\n      0x20\n      dup2\n      dup2\n      mstore\n      0x40\n      dup1\n      dup4\n      keccak256\n        /* \"doctor.sol\":850:872  return userFiles[user] */\n      dup1\n      sload\n      dup3\n      mload\n      dup2\n      dup6\n      mul\n      dup2\n      add\n      dup6\n      add\n      swap1\n      swap4\n      mstore\n      dup1\n      dup4\n      mstore\n        /* \"doctor.sol\":820:837  FileData[] memory */\n      0x60\n      swap5\n        /* \"doctor.sol\":850:872  return userFiles[user] */\n      swap3\n      swap4\n        /* \"doctor.sol\":857:872  userFiles[user] */\n      swap2\n      swap3\n        /* \"doctor.sol\":850:872  return userFiles[user] */\n      swap1\n      swap2\n      dup5\n      add\n    tag_16:\n      dup3\n      dup3\n      lt\n      iszero\n      tag_17\n      jumpi\n      dup4\n      dup3\n      swap1\n      0x00\n      mstore\n      keccak256(0x00, 0x20)\n      swap1\n      0x02\n      mul\n      add\n      mload(0x40)\n      dup1\n      0x40\n      add\n      0x40\n      mstore\n      swap1\n      dup2\n      0x00\n      dup3\n      add\n      dup1\n      sload\n      tag_19\n      swap1\n      tag_20\n      jump\t// in\n    tag_19:\n      dup1\n      0x1f\n      add\n      0x20\n      dup1\n      swap2\n      div\n      mul\n      0x20\n      add\n      mload(0x40)\n      swap1\n      dup2\n      add\n      0x40\n      mstore\n      dup1\n      swap3\n      swap2\n      swap1\n      dup2\n      dup2\n      mstore\n      0x20\n      add\n      dup3\n      dup1\n      sload\n      tag_21\n      swap1\n      tag_20\n      jump\t// in\n    tag_21:\n      dup1\n      iszero\n      tag_22\n      jumpi\n      dup1\n      0x1f\n      lt\n      tag_23\n      jumpi\n      0x0100\n      dup1\n      dup4\n      sload\n      div\n      mul\n      dup4\n      mstore\n      swap2\n      0x20\n      add\n      swap2\n      jump(tag_22)\n    tag_23:\n      dup3\n      add\n      swap2\n      swap1\n      0x00\n      mstore\n      keccak256(0x00, 0x20)\n      swap1\n    tag_24:\n      dup2\n      sload\n      dup2\n      mstore\n      swap1\n      0x01\n      add\n      swap1\n      0x20\n      add\n      dup1\n      dup4\n      gt\n      tag_24\n      jumpi\n      dup3\n      swap1\n      sub\n      0x1f\n      and\n      dup3\n      add\n      swap2\n    tag_22:\n      pop\n      pop\n      pop\n      pop\n      pop\n      dup2\n      mstore\n      0x20\n      add\n      0x01\n      dup3\n      add\n      dup1\n      sload\n      tag_25\n      swap1\n      tag_20\n      jump\t// in\n    tag_25:\n      dup1\n      0x1f\n      add\n      0x20\n      dup1\n      swap2\n      div\n      mul\n      0x20\n      add\n      mload(0x40)\n      swap1\n      dup2\n      add\n      0x40\n      mstore\n      dup1\n      swap3\n      swap2\n      swap1\n      dup2\n      dup2\n      mstore\n      0x20\n      add\n      dup3\n      dup1\n      sload\n      tag_26\n      swap1\n      tag_20\n      jump\t// in\n    tag_26:\n      dup1\n      iszero\n      tag_27\n      jumpi\n      dup1\n      0x1f\n      lt\n      tag_28\n      jumpi\n      0x0100\n      dup1\n      dup4\n      sload\n      div\n      mul\n      dup4\n      mstore\n      swap2\n      0x20\n      add\n      swap2\n      jump(tag_27)\n    tag_28:\n      dup3\n      add\n      swap2\n      swap1\n      0x00\n      mstore\n      keccak256(0x00, 0x20)\n      swap1\n    tag_29:\n      dup2\n      sload\n      dup2\n      mstore\n      swap1\n      0x01\n      add\n      swap1\n      0x20\n      add\n      dup1\n      dup4\n      gt\n      tag_29\n      jumpi\n      dup3\n      swap1\n      sub\n      0x1f\n      and\n      dup3\n      add\n      swap2\n    tag_27:\n      pop\n      pop\n      pop\n      pop\n      pop\n      dup2\n      mstore\n      pop\n      pop\n      dup2\n      mstore\n      0x20\n      add\n      swap1\n      0x01\n      add\n      swap1\n      jump(tag_16)\n    tag_17:\n      pop\n      pop\n      pop\n      pop\n      swap1\n      pop\n        /* \"doctor.sol\":761:880  function getUserFiles(address user) external view returns (FileData[] memory) {... */\n      swap2\n      swap1\n      pop\n      jump\t// out\n        /* \"doctor.sol\":528:678  function addInputFile(string memory fileCID, string memory outcome) external {... */\n    tag_14:\n        /* \"doctor.sol\":626:636  msg.sender */\n      caller\n        /* \"doctor.sol\":616:625  userFiles */\n      0x00\n        /* \"doctor.sol\":616:637  userFiles[msg.sender] */\n      swap1\n      dup2\n      mstore\n      0x20\n      dup2\n      dup2\n      mstore\n      0x40\n      dup1\n      dup4\n      keccak256\n        /* \"doctor.sol\":643:669  FileData(fileCID, outcome) */\n      dup2\n      mload\n      dup1\n      dup4\n      add\n      swap1\n      swap3\n      mstore\n      dup6\n      dup3\n      mstore\n      dup2\n      dup4\n      add\n      dup6\n      swap1\n      mstore\n        /* \"doctor.sol\":616:670  userFiles[msg.sender].push(FileData(fileCID, outcome)) */\n      dup1\n      sload\n      0x01\n      dup2\n      add\n      dup3\n      sstore\n      swap1\n      dup5\n      mstore\n      swap2\n      swap1\n      swap3\n      keccak256\n      dup3\n      mload\n      0x02\n      swap1\n      swap3\n      mul\n      add\n      swap1\n      dup2\n      swap1\n      tag_32\n      swap1\n      dup3\n      tag_33\n      jump\t// in\n    tag_32:\n      pop\n      0x20\n      dup3\n      add\n      mload\n      0x01\n      dup3\n      add\n      swap1\n      tag_34\n      swap1\n      dup3\n      tag_33\n      jump\t// in\n    tag_34:\n      pop\n      pop\n      pop\n        /* \"doctor.sol\":528:678  function addInputFile(string memory fileCID, string memory outcome) external {... */\n      pop\n      pop\n      jump\t// out\n        /* \"#utility.yul\":14:323   */\n    tag_7:\n        /* \"#utility.yul\":73:79   */\n      0x00\n        /* \"#utility.yul\":126:128   */\n      0x20\n        /* \"#utility.yul\":114:123   */\n      dup3\n        /* \"#utility.yul\":105:112   */\n      dup5\n        /* \"#utility.yul\":101:124   */\n      sub\n        /* \"#utility.yul\":97:129   */\n      slt\n        /* \"#utility.yul\":94:146   */\n      iszero\n      tag_43\n      jumpi\n        /* \"#utility.yul\":142:143   */\n      0x00\n        /* \"#utility.yul\":139:140   */\n      dup1\n        /* \"#utility.yul\":132:144   */\n      revert\n        /* \"#utility.yul\":94:146   */\n    tag_43:\n        /* \"#utility.yul\":181:190   */\n      dup2\n        /* \"#utility.yul\":168:191   */\n      calldataload\n        /* \"#utility.yul\":231:273   */\n      0xffffffffffffffffffffffffffffffffffffffff\n        /* \"#utility.yul\":224:229   */\n      dup2\n        /* \"#utility.yul\":220:274   */\n      and\n        /* \"#utility.yul\":213:218   */\n      dup2\n        /* \"#utility.yul\":210:275   */\n      eq\n        /* \"#utility.yul\":200:293   */\n      tag_44\n      jumpi\n        /* \"#utility.yul\":289:290   */\n      0x00\n        /* \"#utility.yul\":286:287   */\n      dup1\n        /* \"#utility.yul\":279:291   */\n      revert\n        /* \"#utility.yul\":200:293   */\n    tag_44:\n        /* \"#utility.yul\":312:317   */\n      swap4\n        /* \"#utility.yul\":14:323   */\n      swap3\n      pop\n      pop\n      pop\n      jump\t// out\n        /* \"#utility.yul\":328:617   */\n    tag_35:\n        /* \"#utility.yul\":370:373   */\n      0x00\n        /* \"#utility.yul\":408:413   */\n      dup2\n        /* \"#utility.yul\":402:414   */\n      mload\n        /* \"#utility.yul\":435:441   */\n      dup1\n        /* \"#utility.yul\":430:433   */\n      dup5\n        /* \"#utility.yul\":423:442   */\n      mstore\n        /* \"#utility.yul\":491:497   */\n      dup1\n        /* \"#utility.yul\":484:488   */\n      0x20\n        /* \"#utility.yul\":477:482   */\n      dup5\n        /* \"#utility.yul\":473:489   */\n      add\n        /* \"#utility.yul\":466:470   */\n      0x20\n        /* \"#utility.yul\":461:464   */\n      dup7\n        /* \"#utility.yul\":457:471   */\n      add\n        /* \"#utility.yul\":451:498   */\n      mcopy\n        /* \"#utility.yul\":543:544   */\n      0x00\n        /* \"#utility.yul\":536:540   */\n      0x20\n        /* \"#utility.yul\":527:533   */\n      dup3\n        /* \"#utility.yul\":522:525   */\n      dup7\n        /* \"#utility.yul\":518:534   */\n      add\n        /* \"#utility.yul\":514:541   */\n      add\n        /* \"#utility.yul\":507:545   */\n      mstore\n        /* \"#utility.yul\":606:610   */\n      0x20\n        /* \"#utility.yul\":599:601   */\n      0x1f\n        /* \"#utility.yul\":595:602   */\n      not\n        /* \"#utility.yul\":590:592   */\n      0x1f\n        /* \"#utility.yul\":582:588   */\n      dup4\n        /* \"#utility.yul\":578:593   */\n      add\n        /* \"#utility.yul\":574:603   */\n      and\n        /* \"#utility.yul\":569:572   */\n      dup6\n        /* \"#utility.yul\":565:604   */\n      add\n        /* \"#utility.yul\":561:611   */\n      add\n        /* \"#utility.yul\":554:611   */\n      swap2\n      pop\n      pop\n        /* \"#utility.yul\":328:617   */\n      swap3\n      swap2\n      pop\n      pop\n      jump\t// out\n        /* \"#utility.yul\":622:1767   */\n    tag_10:\n        /* \"#utility.yul\":810:814   */\n      0x00\n        /* \"#utility.yul\":839:841   */\n      0x20\n        /* \"#utility.yul\":879:881   */\n      dup1\n        /* \"#utility.yul\":868:877   */\n      dup4\n        /* \"#utility.yul\":864:882   */\n      add\n        /* \"#utility.yul\":909:911   */\n      dup2\n        /* \"#utility.yul\":898:907   */\n      dup5\n        /* \"#utility.yul\":891:912   */\n      mstore\n        /* \"#utility.yul\":932:938   */\n      dup1\n        /* \"#utility.yul\":967:973   */\n      dup6\n        /* \"#utility.yul\":961:974   */\n      mload\n        /* \"#utility.yul\":998:1004   */\n      dup1\n        /* \"#utility.yul\":990:996   */\n      dup4\n        /* \"#utility.yul\":983:1005   */\n      mstore\n        /* \"#utility.yul\":1024:1026   */\n      0x40\n        /* \"#utility.yul\":1014:1026   */\n      swap3\n      pop\n        /* \"#utility.yul\":1057:1059   */\n      0x40\n        /* \"#utility.yul\":1046:1055   */\n      dup7\n        /* \"#utility.yul\":1042:1060   */\n      add\n        /* \"#utility.yul\":1035:1060   */\n      swap2\n      pop\n        /* \"#utility.yul\":1119:1121   */\n      0x40\n        /* \"#utility.yul\":1109:1115   */\n      dup2\n        /* \"#utility.yul\":1106:1107   */\n      0x05\n        /* \"#utility.yul\":1102:1116   */\n      shl\n        /* \"#utility.yul\":1091:1100   */\n      dup8\n        /* \"#utility.yul\":1087:1117   */\n      add\n        /* \"#utility.yul\":1083:1122   */\n      add\n        /* \"#utility.yul\":1157:1159   */\n      dup5\n        /* \"#utility.yul\":1149:1155   */\n      dup9\n        /* \"#utility.yul\":1145:1160   */\n      add\n        /* \"#utility.yul\":1178:1179   */\n      0x00\n        /* \"#utility.yul\":1188:1738   */\n    tag_47:\n        /* \"#utility.yul\":1202:1208   */\n      dup4\n        /* \"#utility.yul\":1199:1200   */\n      dup2\n        /* \"#utility.yul\":1196:1209   */\n      lt\n        /* \"#utility.yul\":1188:1738   */\n      iszero\n      tag_49\n      jumpi\n        /* \"#utility.yul\":1267:1289   */\n      dup9\n      dup4\n      sub\n      not(0x3f)\n        /* \"#utility.yul\":1263:1299   */\n      add\n        /* \"#utility.yul\":1251:1300   */\n      dup6\n      mstore\n        /* \"#utility.yul\":1323:1336   */\n      dup2\n      mload\n        /* \"#utility.yul\":1369:1378   */\n      dup1\n      mload\n        /* \"#utility.yul\":1391:1409   */\n      dup8\n      dup6\n      mstore\n        /* \"#utility.yul\":1436:1484   */\n      tag_50\n        /* \"#utility.yul\":1468:1483   */\n      dup9\n      dup7\n      add\n        /* \"#utility.yul\":1369:1378   */\n      dup3\n        /* \"#utility.yul\":1436:1484   */\n      tag_35\n      jump\t// in\n    tag_50:\n        /* \"#utility.yul\":1525:1536   */\n      swap2\n      dup10\n      add\n        /* \"#utility.yul\":1519:1537   */\n      mload\n        /* \"#utility.yul\":1574:1593   */\n      dup6\n      dup4\n      sub\n        /* \"#utility.yul\":1557:1572   */\n      dup7\n      dup12\n      add\n        /* \"#utility.yul\":1550:1594   */\n      mstore\n        /* \"#utility.yul\":1519:1537   */\n      swap2\n        /* \"#utility.yul\":1422:1484   */\n      swap1\n      pop\n        /* \"#utility.yul\":1617:1658   */\n      tag_51\n        /* \"#utility.yul\":1422:1484   */\n      dup2\n        /* \"#utility.yul\":1519:1537   */\n      dup4\n        /* \"#utility.yul\":1617:1658   */\n      tag_35\n      jump\t// in\n    tag_51:\n        /* \"#utility.yul\":1716:1728   */\n      swap7\n      dup10\n      add\n      swap7\n        /* \"#utility.yul\":1607:1658   */\n      swap5\n      pop\n      pop\n      pop\n        /* \"#utility.yul\":1681:1696   */\n      swap1\n      dup7\n      add\n      swap1\n        /* \"#utility.yul\":1224:1225   */\n      0x01\n        /* \"#utility.yul\":1217:1226   */\n      add\n        /* \"#utility.yul\":1188:1738   */\n      jump(tag_47)\n    tag_49:\n      pop\n        /* \"#utility.yul\":1755:1761   */\n      swap1\n      swap9\n        /* \"#utility.yul\":622:1767   */\n      swap8\n      pop\n      pop\n      pop\n      pop\n      pop\n      pop\n      pop\n      pop\n      jump\t// out\n        /* \"#utility.yul\":1772:1899   */\n    tag_36:\n        /* \"#utility.yul\":1833:1843   */\n      0x4e487b71\n        /* \"#utility.yul\":1828:1831   */\n      0xe0\n        /* \"#utility.yul\":1824:1844   */\n      shl\n        /* \"#utility.yul\":1821:1822   */\n      0x00\n        /* \"#utility.yul\":1814:1845   */\n      mstore\n        /* \"#utility.yul\":1864:1868   */\n      0x41\n        /* \"#utility.yul\":1861:1862   */\n      0x04\n        /* \"#utility.yul\":1854:1869   */\n      mstore\n        /* \"#utility.yul\":1888:1892   */\n      0x24\n        /* \"#utility.yul\":1885:1886   */\n      0x00\n        /* \"#utility.yul\":1878:1893   */\n      revert\n        /* \"#utility.yul\":1904:2623   */\n    tag_37:\n        /* \"#utility.yul\":1947:1952   */\n      0x00\n        /* \"#utility.yul\":2000:2003   */\n      dup3\n        /* \"#utility.yul\":1993:1997   */\n      0x1f\n        /* \"#utility.yul\":1985:1991   */\n      dup4\n        /* \"#utility.yul\":1981:1998   */\n      add\n        /* \"#utility.yul\":1977:2004   */\n      slt\n        /* \"#utility.yul\":1967:2022   */\n      tag_54\n      jumpi\n        /* \"#utility.yul\":2018:2019   */\n      0x00\n        /* \"#utility.yul\":2015:2016   */\n      dup1\n        /* \"#utility.yul\":2008:2020   */\n      revert\n        /* \"#utility.yul\":1967:2022   */\n    tag_54:\n        /* \"#utility.yul\":2054:2060   */\n      dup2\n        /* \"#utility.yul\":2041:2061   */\n      calldataload\n        /* \"#utility.yul\":2080:2098   */\n      0xffffffffffffffff\n        /* \"#utility.yul\":2117:2119   */\n      dup1\n        /* \"#utility.yul\":2113:2115   */\n      dup3\n        /* \"#utility.yul\":2110:2120   */\n      gt\n        /* \"#utility.yul\":2107:2143   */\n      iszero\n      tag_56\n      jumpi\n        /* \"#utility.yul\":2123:2141   */\n      tag_56\n      tag_36\n      jump\t// in\n    tag_56:\n        /* \"#utility.yul\":2198:2200   */\n      0x40\n        /* \"#utility.yul\":2192:2201   */\n      mload\n        /* \"#utility.yul\":2166:2168   */\n      0x1f\n        /* \"#utility.yul\":2252:2265   */\n      dup4\n      add\n      not(0x1f)\n        /* \"#utility.yul\":2248:2270   */\n      swap1\n      dup2\n      and\n        /* \"#utility.yul\":2272:2274   */\n      0x3f\n        /* \"#utility.yul\":2244:2275   */\n      add\n        /* \"#utility.yul\":2240:2280   */\n      and\n        /* \"#utility.yul\":2228:2281   */\n      dup2\n      add\n      swap1\n        /* \"#utility.yul\":2296:2314   */\n      dup3\n      dup3\n      gt\n        /* \"#utility.yul\":2316:2338   */\n      dup2\n      dup4\n      lt\n        /* \"#utility.yul\":2293:2339   */\n      or\n        /* \"#utility.yul\":2290:2362   */\n      iszero\n      tag_58\n      jumpi\n        /* \"#utility.yul\":2342:2360   */\n      tag_58\n      tag_36\n      jump\t// in\n    tag_58:\n        /* \"#utility.yul\":2382:2392   */\n      dup2\n        /* \"#utility.yul\":2378:2380   */\n      0x40\n        /* \"#utility.yul\":2371:2393   */\n      mstore\n        /* \"#utility.yul\":2417:2419   */\n      dup4\n        /* \"#utility.yul\":2409:2415   */\n      dup2\n        /* \"#utility.yul\":2402:2420   */\n      mstore\n        /* \"#utility.yul\":2463:2466   */\n      dup7\n        /* \"#utility.yul\":2456:2460   */\n      0x20\n        /* \"#utility.yul\":2451:2453   */\n      dup6\n        /* \"#utility.yul\":2443:2449   */\n      dup9\n        /* \"#utility.yul\":2439:2454   */\n      add\n        /* \"#utility.yul\":2435:2461   */\n      add\n        /* \"#utility.yul\":2432:2467   */\n      gt\n        /* \"#utility.yul\":2429:2484   */\n      iszero\n      tag_59\n      jumpi\n        /* \"#utility.yul\":2480:2481   */\n      0x00\n        /* \"#utility.yul\":2477:2478   */\n      dup1\n        /* \"#utility.yul\":2470:2482   */\n      revert\n        /* \"#utility.yul\":2429:2484   */\n    tag_59:\n        /* \"#utility.yul\":2544:2546   */\n      dup4\n        /* \"#utility.yul\":2537:2541   */\n      0x20\n        /* \"#utility.yul\":2529:2535   */\n      dup8\n        /* \"#utility.yul\":2525:2542   */\n      add\n        /* \"#utility.yul\":2518:2522   */\n      0x20\n        /* \"#utility.yul\":2510:2516   */\n      dup4\n        /* \"#utility.yul\":2506:2523   */\n      add\n        /* \"#utility.yul\":2493:2547   */\n      calldatacopy\n        /* \"#utility.yul\":2591:2592   */\n      0x00\n        /* \"#utility.yul\":2584:2588   */\n      0x20\n        /* \"#utility.yul\":2579:2581   */\n      dup6\n        /* \"#utility.yul\":2571:2577   */\n      dup4\n        /* \"#utility.yul\":2567:2582   */\n      add\n        /* \"#utility.yul\":2563:2589   */\n      add\n        /* \"#utility.yul\":2556:2593   */\n      mstore\n        /* \"#utility.yul\":2611:2617   */\n      dup1\n        /* \"#utility.yul\":2602:2617   */\n      swap5\n      pop\n      pop\n      pop\n      pop\n      pop\n        /* \"#utility.yul\":1904:2623   */\n      swap3\n      swap2\n      pop\n      pop\n      jump\t// out\n        /* \"#utility.yul\":2628:3171   */\n    tag_13:\n        /* \"#utility.yul\":2716:2722   */\n      0x00\n        /* \"#utility.yul\":2724:2730   */\n      dup1\n        /* \"#utility.yul\":2777:2779   */\n      0x40\n        /* \"#utility.yul\":2765:2774   */\n      dup4\n        /* \"#utility.yul\":2756:2763   */\n      dup6\n        /* \"#utility.yul\":2752:2775   */\n      sub\n        /* \"#utility.yul\":2748:2780   */\n      slt\n        /* \"#utility.yul\":2745:2797   */\n      iszero\n      tag_61\n      jumpi\n        /* \"#utility.yul\":2793:2794   */\n      0x00\n        /* \"#utility.yul\":2790:2791   */\n      dup1\n        /* \"#utility.yul\":2783:2795   */\n      revert\n        /* \"#utility.yul\":2745:2797   */\n    tag_61:\n        /* \"#utility.yul\":2833:2842   */\n      dup3\n        /* \"#utility.yul\":2820:2843   */\n      calldataload\n        /* \"#utility.yul\":2862:2880   */\n      0xffffffffffffffff\n        /* \"#utility.yul\":2903:2905   */\n      dup1\n        /* \"#utility.yul\":2895:2901   */\n      dup3\n        /* \"#utility.yul\":2892:2906   */\n      gt\n        /* \"#utility.yul\":2889:2923   */\n      iszero\n      tag_62\n      jumpi\n        /* \"#utility.yul\":2919:2920   */\n      0x00\n        /* \"#utility.yul\":2916:2917   */\n      dup1\n        /* \"#utility.yul\":2909:2921   */\n      revert\n        /* \"#utility.yul\":2889:2923   */\n    tag_62:\n        /* \"#utility.yul\":2942:2992   */\n      tag_63\n        /* \"#utility.yul\":2984:2991   */\n      dup7\n        /* \"#utility.yul\":2975:2981   */\n      dup4\n        /* \"#utility.yul\":2964:2973   */\n      dup8\n        /* \"#utility.yul\":2960:2982   */\n      add\n        /* \"#utility.yul\":2942:2992   */\n      tag_37\n      jump\t// in\n    tag_63:\n        /* \"#utility.yul\":2932:2992   */\n      swap4\n      pop\n        /* \"#utility.yul\":3045:3047   */\n      0x20\n        /* \"#utility.yul\":3034:3043   */\n      dup6\n        /* \"#utility.yul\":3030:3048   */\n      add\n        /* \"#utility.yul\":3017:3049   */\n      calldataload\n        /* \"#utility.yul\":3001:3049   */\n      swap2\n      pop\n        /* \"#utility.yul\":3074:3076   */\n      dup1\n        /* \"#utility.yul\":3064:3072   */\n      dup3\n        /* \"#utility.yul\":3061:3077   */\n      gt\n        /* \"#utility.yul\":3058:3094   */\n      iszero\n      tag_64\n      jumpi\n        /* \"#utility.yul\":3090:3091   */\n      0x00\n        /* \"#utility.yul\":3087:3088   */\n      dup1\n        /* \"#utility.yul\":3080:3092   */\n      revert\n        /* \"#utility.yul\":3058:3094   */\n    tag_64:\n      pop\n        /* \"#utility.yul\":3113:3165   */\n      tag_65\n        /* \"#utility.yul\":3157:3164   */\n      dup6\n        /* \"#utility.yul\":3146:3154   */\n      dup3\n        /* \"#utility.yul\":3135:3144   */\n      dup7\n        /* \"#utility.yul\":3131:3155   */\n      add\n        /* \"#utility.yul\":3113:3165   */\n      tag_37\n      jump\t// in\n    tag_65:\n        /* \"#utility.yul\":3103:3165   */\n      swap2\n      pop\n      pop\n        /* \"#utility.yul\":2628:3171   */\n      swap3\n      pop\n      swap3\n      swap1\n      pop\n      jump\t// out\n        /* \"#utility.yul\":3176:3556   */\n    tag_20:\n        /* \"#utility.yul\":3255:3256   */\n      0x01\n        /* \"#utility.yul\":3251:3263   */\n      dup2\n      dup2\n      shr\n      swap1\n        /* \"#utility.yul\":3298:3310   */\n      dup3\n      and\n      dup1\n        /* \"#utility.yul\":3319:3380   */\n      tag_67\n      jumpi\n        /* \"#utility.yul\":3373:3377   */\n      0x7f\n        /* \"#utility.yul\":3365:3371   */\n      dup3\n        /* \"#utility.yul\":3361:3378   */\n      and\n        /* \"#utility.yul\":3351:3378   */\n      swap2\n      pop\n        /* \"#utility.yul\":3319:3380   */\n    tag_67:\n        /* \"#utility.yul\":3426:3428   */\n      0x20\n        /* \"#utility.yul\":3418:3424   */\n      dup3\n        /* \"#utility.yul\":3415:3429   */\n      lt\n        /* \"#utility.yul\":3395:3413   */\n      dup2\n        /* \"#utility.yul\":3392:3430   */\n      sub\n        /* \"#utility.yul\":3389:3550   */\n      tag_68\n      jumpi\n        /* \"#utility.yul\":3472:3482   */\n      0x4e487b71\n        /* \"#utility.yul\":3467:3470   */\n      0xe0\n        /* \"#utility.yul\":3463:3483   */\n      shl\n        /* \"#utility.yul\":3460:3461   */\n      0x00\n        /* \"#utility.yul\":3453:3484   */\n      mstore\n        /* \"#utility.yul\":3507:3511   */\n      0x22\n        /* \"#utility.yul\":3504:3505   */\n      0x04\n        /* \"#utility.yul\":3497:3512   */\n      mstore\n        /* \"#utility.yul\":3535:3539   */\n      0x24\n        /* \"#utility.yul\":3532:3533   */\n      0x00\n        /* \"#utility.yul\":3525:3540   */\n      revert\n        /* \"#utility.yul\":3389:3550   */\n    tag_68:\n      pop\n        /* \"#utility.yul\":3176:3556   */\n      swap2\n      swap1\n      pop\n      jump\t// out\n        /* \"#utility.yul\":3687:4205   */\n    tag_39:\n        /* \"#utility.yul\":3789:3791   */\n      0x1f\n        /* \"#utility.yul\":3784:3787   */\n      dup3\n        /* \"#utility.yul\":3781:3792   */\n      gt\n        /* \"#utility.yul\":3778:4199   */\n      iszero\n      tag_71\n      jumpi\n        /* \"#utility.yul\":3825:3830   */\n      dup1\n        /* \"#utility.yul\":3822:3823   */\n      0x00\n        /* \"#utility.yul\":3815:3831   */\n      mstore\n        /* \"#utility.yul\":3869:3873   */\n      0x20\n        /* \"#utility.yul\":3866:3867   */\n      0x00\n        /* \"#utility.yul\":3856:3874   */\n      keccak256\n        /* \"#utility.yul\":3939:3941   */\n      0x1f\n        /* \"#utility.yul\":3927:3937   */\n      dup5\n        /* \"#utility.yul\":3923:3942   */\n      add\n        /* \"#utility.yul\":3920:3921   */\n      0x05\n        /* \"#utility.yul\":3916:3943   */\n      shr\n        /* \"#utility.yul\":3910:3914   */\n      dup2\n        /* \"#utility.yul\":3906:3944   */\n      add\n        /* \"#utility.yul\":3975:3979   */\n      0x20\n        /* \"#utility.yul\":3963:3973   */\n      dup6\n        /* \"#utility.yul\":3960:3980   */\n      lt\n        /* \"#utility.yul\":3957:4004   */\n      iszero\n      tag_72\n      jumpi\n      pop\n        /* \"#utility.yul\":3998:4002   */\n      dup1\n        /* \"#utility.yul\":3957:4004   */\n    tag_72:\n        /* \"#utility.yul\":4053:4055   */\n      0x1f\n        /* \"#utility.yul\":4048:4051   */\n      dup5\n        /* \"#utility.yul\":4044:4056   */\n      add\n        /* \"#utility.yul\":4041:4042   */\n      0x05\n        /* \"#utility.yul\":4037:4057   */\n      shr\n        /* \"#utility.yul\":4031:4035   */\n      dup3\n        /* \"#utility.yul\":4027:4058   */\n      add\n        /* \"#utility.yul\":4017:4058   */\n      swap2\n      pop\n        /* \"#utility.yul\":4108:4189   */\n    tag_73:\n        /* \"#utility.yul\":4126:4128   */\n      dup2\n        /* \"#utility.yul\":4119:4124   */\n      dup2\n        /* \"#utility.yul\":4116:4129   */\n      lt\n        /* \"#utility.yul\":4108:4189   */\n      iszero\n      tag_34\n      jumpi\n        /* \"#utility.yul\":4185:4186   */\n      0x00\n        /* \"#utility.yul\":4171:4187   */\n      dup2\n      sstore\n        /* \"#utility.yul\":4152:4153   */\n      0x01\n        /* \"#utility.yul\":4141:4154   */\n      add\n        /* \"#utility.yul\":4108:4189   */\n      jump(tag_73)\n        /* \"#utility.yul\":3778:4199   */\n    tag_71:\n        /* \"#utility.yul\":3687:4205   */\n      pop\n      pop\n      pop\n      jump\t// out\n        /* \"#utility.yul\":4381:5726   */\n    tag_33:\n        /* \"#utility.yul\":4507:4510   */\n      dup2\n        /* \"#utility.yul\":4501:4511   */\n      mload\n        /* \"#utility.yul\":4534:4552   */\n      0xffffffffffffffff\n        /* \"#utility.yul\":4526:4532   */\n      dup2\n        /* \"#utility.yul\":4523:4553   */\n      gt\n        /* \"#utility.yul\":4520:4576   */\n      iszero\n      tag_79\n      jumpi\n        /* \"#utility.yul\":4556:4574   */\n      tag_79\n      tag_36\n      jump\t// in\n    tag_79:\n        /* \"#utility.yul\":4585:4682   */\n      tag_80\n        /* \"#utility.yul\":4675:4681   */\n      dup2\n        /* \"#utility.yul\":4635:4673   */\n      tag_81\n        /* \"#utility.yul\":4667:4671   */\n      dup5\n        /* \"#utility.yul\":4661:4672   */\n      sload\n        /* \"#utility.yul\":4635:4673   */\n      tag_20\n      jump\t// in\n    tag_81:\n        /* \"#utility.yul\":4629:4633   */\n      dup5\n        /* \"#utility.yul\":4585:4682   */\n      tag_39\n      jump\t// in\n    tag_80:\n        /* \"#utility.yul\":4737:4741   */\n      0x20\n      dup1\n        /* \"#utility.yul\":4794:4796   */\n      0x1f\n        /* \"#utility.yul\":4783:4797   */\n      dup4\n      gt\n        /* \"#utility.yul\":4811:4812   */\n      0x01\n        /* \"#utility.yul\":4806:5469   */\n      dup2\n      eq\n      tag_83\n      jumpi\n        /* \"#utility.yul\":5513:5514   */\n      0x00\n        /* \"#utility.yul\":5530:5536   */\n      dup5\n        /* \"#utility.yul\":5527:5616   */\n      iszero\n      tag_84\n      jumpi\n      pop\n        /* \"#utility.yul\":5582:5601   */\n      dup6\n      dup4\n      add\n        /* \"#utility.yul\":5576:5602   */\n      mload\n        /* \"#utility.yul\":5527:5616   */\n    tag_84:\n      not(0x00)\n        /* \"#utility.yul\":4338:4339   */\n      0x03\n        /* \"#utility.yul\":4334:4345   */\n      dup7\n      swap1\n      shl\n        /* \"#utility.yul\":4330:4354   */\n      shr\n        /* \"#utility.yul\":4326:4355   */\n      not\n        /* \"#utility.yul\":4316:4356   */\n      and\n        /* \"#utility.yul\":4362:4363   */\n      0x01\n        /* \"#utility.yul\":4358:4369   */\n      dup6\n      swap1\n      shl\n        /* \"#utility.yul\":4313:4370   */\n      or\n        /* \"#utility.yul\":5629:5710   */\n      dup6\n      sstore\n        /* \"#utility.yul\":4776:5720   */\n      jump(tag_82)\n        /* \"#utility.yul\":4806:5469   */\n    tag_83:\n        /* \"#utility.yul\":3634:3635   */\n      0x00\n        /* \"#utility.yul\":3627:3641   */\n      dup6\n      dup2\n      mstore\n        /* \"#utility.yul\":3671:3675   */\n      0x20\n        /* \"#utility.yul\":3658:3676   */\n      dup2\n      keccak256\n      not(0x1f)\n        /* \"#utility.yul\":4842:4862   */\n      dup7\n      and\n      swap2\n        /* \"#utility.yul\":4960:5196   */\n    tag_87:\n        /* \"#utility.yul\":4974:4981   */\n      dup3\n        /* \"#utility.yul\":4971:4972   */\n      dup2\n        /* \"#utility.yul\":4968:4982   */\n      lt\n        /* \"#utility.yul\":4960:5196   */\n      iszero\n      tag_89\n      jumpi\n        /* \"#utility.yul\":5063:5082   */\n      dup9\n      dup7\n      add\n        /* \"#utility.yul\":5057:5083   */\n      mload\n        /* \"#utility.yul\":5042:5084   */\n      dup3\n      sstore\n        /* \"#utility.yul\":5155:5182   */\n      swap5\n      dup5\n      add\n      swap5\n        /* \"#utility.yul\":5123:5124   */\n      0x01\n        /* \"#utility.yul\":5111:5125   */\n      swap1\n      swap2\n      add\n      swap1\n        /* \"#utility.yul\":4990:5009   */\n      dup5\n      add\n        /* \"#utility.yul\":4960:5196   */\n      jump(tag_87)\n    tag_89:\n        /* \"#utility.yul\":4964:4967   */\n      pop\n        /* \"#utility.yul\":5224:5230   */\n      dup6\n        /* \"#utility.yul\":5215:5222   */\n      dup3\n        /* \"#utility.yul\":5212:5231   */\n      lt\n        /* \"#utility.yul\":5209:5410   */\n      iszero\n      tag_90\n      jumpi\n        /* \"#utility.yul\":5285:5304   */\n      dup8\n      dup6\n      add\n        /* \"#utility.yul\":5279:5305   */\n      mload\n      not(0x00)\n        /* \"#utility.yul\":5368:5369   */\n      0x03\n        /* \"#utility.yul\":5364:5378   */\n      dup9\n      swap1\n      shl\n        /* \"#utility.yul\":5380:5383   */\n      0xf8\n        /* \"#utility.yul\":5360:5384   */\n      and\n        /* \"#utility.yul\":5356:5393   */\n      shr\n        /* \"#utility.yul\":5352:5394   */\n      not\n        /* \"#utility.yul\":5337:5395   */\n      and\n        /* \"#utility.yul\":5322:5396   */\n      dup2\n      sstore\n        /* \"#utility.yul\":5209:5410   */\n    tag_90:\n      pop\n      pop\n        /* \"#utility.yul\":5456:5457   */\n      0x01\n        /* \"#utility.yul\":5447:5453   */\n      dup5\n        /* \"#utility.yul\":5444:5445   */\n      0x01\n        /* \"#utility.yul\":5440:5454   */\n      shl\n        /* \"#utility.yul\":5436:5458   */\n      add\n        /* \"#utility.yul\":5430:5434   */\n      dup6\n        /* \"#utility.yul\":5423:5459   */\n      sstore\n        /* \"#utility.yul\":4776:5720   */\n    tag_82:\n      pop\n      pop\n      pop\n      pop\n        /* \"#utility.yul\":4381:5726   */\n      pop\n      pop\n      jump\t// out\n\n    auxdata: 0xa264697066735822122007865dfca6eade9ae2c06bb6fcf5a8023ba329ba8e5711d236e1bdd30d7df0b664736f6c63430008190033\n}\n",
    "bytecode": {
      "linkReferences": {},
      "object": "6080604052348015600e575f80fd5b506105d38061001c5f395ff3fe608060405234801561000f575f80fd5b5060043610610034575f3560e01c80631fc3792214610038578063eb61327114610061575b5f80fd5b61004b610046366004610272565b610076565b60405161005891906102da565b60405180910390f35b61007461006f3660046103fc565b610212565b005b73ffffffffffffffffffffffffffffffffffffffff81165f90815260208181526040808320805482518185028101850190935280835260609492939192909184015b82821015610207578382905f5260205f2090600202016040518060400160405290815f820180546100e89061045c565b80601f01602080910402602001604051908101604052809291908181526020018280546101149061045c565b801561015f5780601f106101365761010080835404028352916020019161015f565b820191905f5260205f20905b81548152906001019060200180831161014257829003601f168201915b505050505081526020016001820180546101789061045c565b80601f01602080910402602001604051908101604052809291908181526020018280546101a49061045c565b80156101ef5780601f106101c6576101008083540402835291602001916101ef565b820191905f5260205f20905b8154815290600101906020018083116101d257829003601f168201915b505050505081525050815260200190600101906100b8565b505050509050919050565b335f908152602081815260408083208151808301909252858252818301859052805460018101825590845291909220825160029092020190819061025690826104dd565b506020820151600182019061026b90826104dd565b5050505050565b5f60208284031215610282575f80fd5b813573ffffffffffffffffffffffffffffffffffffffff811681146102a5575f80fd5b9392505050565b5f81518084528060208401602086015e5f602082860101526020601f19601f83011685010191505092915050565b5f60208083018184528085518083526040925060408601915060408160051b8701018488015f5b8381101561035157888303603f1901855281518051878552610325888601826102ac565b91890151858303868b015291905061033d81836102ac565b968901969450505090860190600101610301565b509098975050505050505050565b634e487b7160e01b5f52604160045260245ffd5b5f82601f830112610382575f80fd5b813567ffffffffffffffff8082111561039d5761039d61035f565b604051601f8301601f19908116603f011681019082821181831017156103c5576103c561035f565b816040528381528660208588010111156103dd575f80fd5b836020870160208301375f602085830101528094505050505092915050565b5f806040838503121561040d575f80fd5b823567ffffffffffffffff80821115610424575f80fd5b61043086838701610373565b93506020850135915080821115610445575f80fd5b5061045285828601610373565b9150509250929050565b600181811c9082168061047057607f821691505b60208210810361048e57634e487b7160e01b5f52602260045260245ffd5b50919050565b601f8211156104d857805f5260205f20601f840160051c810160208510156104b95750805b601f840160051c820191505b8181101561026b575f81556001016104c5565b505050565b815167ffffffffffffffff8111156104f7576104f761035f565b61050b81610505845461045c565b84610494565b602080601f83116001811461053e575f84156105275750858301515b5f19600386901b1c1916600185901b178555610595565b5f85815260208120601f198616915b8281101561056c5788860151825594840194600190910190840161054d565b508582101561058957878501515f19600388901b60f8161c191681555b505060018460011b0185555b50505050505056fea264697066735822122007865dfca6eade9ae2c06bb6fcf5a8023ba329ba8e5711d236e1bdd30d7df0b664736f6c63430008190033",
      "opcodes": "PUSH1 0x80 PUSH1 0x40 MSTORE CALLVALUE DUP1 ISZERO PUSH1 0xE JUMPI PUSH0 DUP1 REVERT JUMPDEST POP PUSH2 0x5D3 DUP1 PUSH2 0x1C PUSH0 CODECOPY PUSH0 RETURN INVALID PUSH1 0x80 PUSH1 0x40 MSTORE CALLVALUE DUP1 ISZERO PUSH2 0xF JUMPI PUSH0 DUP1 REVERT JUMPDEST POP PUSH1 0x4 CALLDATASIZE LT PUSH2 0x34 JUMPI PUSH0 CALLDATALOAD PUSH1 0xE0 SHR DUP1 PUSH4 0x1FC37922 EQ PUSH2 0x38 JUMPI DUP1 PUSH4 0xEB613271 EQ PUSH2 0x61 JUMPI JUMPDEST PUSH0 DUP1 REVERT JUMPDEST PUSH2 0x4B PUSH2 0x46 CALLDATASIZE PUSH1 0x4 PUSH2 0x272 JUMP JUMPDEST PUSH2 0x76 JUMP JUMPDEST PUSH1 0x40 MLOAD PUSH2 0x58 SWAP2 SWAP1 PUSH2 0x2DA JUMP JUMPDEST PUSH1 0x40 MLOAD DUP1 SWAP2 SUB SWAP1 RETURN JUMPDEST PUSH2 0x74 PUSH2 0x6F CALLDATASIZE PUSH1 0x4 PUSH2 0x3FC JUMP JUMPDEST PUSH2 0x212 JUMP JUMPDEST STOP JUMPDEST PUSH20 0xFFFFFFFFFFFFFFFFFFFFFFFFFFFFFFFFFFFFFFFF DUP2 AND PUSH0 SWAP1 DUP2 MSTORE PUSH1 0x20 DUP2 DUP2 MSTORE PUSH1 0x40 DUP1 DUP4 KECCAK256 DUP1 SLOAD DUP3 MLOAD DUP2 DUP6 MUL DUP2 ADD DUP6 ADD SWAP1 SWAP4 MSTORE DUP1 DUP4 MSTORE PUSH1 0x60 SWAP5 SWAP3 SWAP4 SWAP2 SWAP3 SWAP1 SWAP2 DUP5 ADD JUMPDEST DUP3 DUP3 LT ISZERO PUSH2 0x207 JUMPI DUP4 DUP3 SWAP1 PUSH0 MSTORE PUSH1 0x20 PUSH0 KECCAK256 SWAP1 PUSH1 0x2 MUL ADD PUSH1 0x40 MLOAD DUP1 PUSH1 0x40 ADD PUSH1 0x40 MSTORE SWAP1 DUP2 PUSH0 DUP3 ADD DUP1 SLOAD PUSH2 0xE8 SWAP1 PUSH2 0x45C JUMP JUMPDEST DUP1 PUSH1 0x1F ADD PUSH1 0x20 DUP1 SWAP2 DIV MUL PUSH1 0x20 ADD PUSH1 0x40 MLOAD SWAP1 DUP2 ADD PUSH1 0x40 MSTORE DUP1 SWAP3 SWAP2 SWAP1 DUP2 DUP2 MSTORE PUSH1 0x20 ADD DUP3 DUP1 SLOAD PUSH2 0x114 SWAP1 PUSH2 0x45C JUMP JUMPDEST DUP1 ISZERO PUSH2 0x15F JUMPI DUP1 PUSH1 0x1F LT PUSH2 0x136 JUMPI PUSH2 0x100 DUP1 DUP4 SLOAD DIV MUL DUP4 MSTORE SWAP2 PUSH1 0x20 ADD SWAP2 PUSH2 0x15F JUMP JUMPDEST DUP3 ADD SWAP2 SWAP1 PUSH0 MSTORE PUSH1 0x20 PUSH0 KECCAK256 SWAP1 JUMPDEST DUP2 SLOAD DUP2 MSTORE SWAP1 PUSH1 0x1 ADD SWAP1 PUSH1 0x20 ADD DUP1 DUP4 GT PUSH2 0x142 JUMPI DUP3 SWAP1 SUB PUSH1 0x1F AND DUP3 ADD SWAP2 JUMPDEST POP POP POP POP POP DUP2 MSTORE PUSH1 0x20 ADD PUSH1 0x1 DUP3 ADD DUP1 SLOAD PUSH2 0x178 SWAP1 PUSH2 0x45C JUMP JUMPDEST DUP1 PUSH1 0x1F ADD PUSH1 0x20 DUP1 SWAP2 DIV MUL PUSH1 0x20 ADD PUSH1 0x40 MLOAD SWAP1 DUP2 ADD PUSH1 0x40 MSTORE DUP1 SWAP3 SWAP2 SWAP1 DUP2 DUP2 MSTORE PUSH1 0x20 ADD DUP3 DUP1 SLOAD PUSH2 0x1A4 SWAP1 PUSH2 0x45C JUMP JUMPDEST DUP1 ISZERO PUSH2 0x1EF JUMPI DUP1 PUSH1 0x1F LT PUSH2 0x1C6 JUMPI PUSH2 0x100 DUP1 DUP4 SLOAD DIV MUL DUP4 MSTORE SWAP2 PUSH1 0x20 ADD SWAP2 PUSH2 0x1EF JUMP JUMPDEST DUP3 ADD SWAP2 SWAP1 PUSH0 MSTORE PUSH1 0x20 PUSH0 KECCAK256 SWAP1 JUMPDEST DUP2 SLOAD DUP2 MSTORE SWAP1 PUSH1 0x1 ADD SWAP1 PUSH1 0x20 ADD DUP1 DUP4 GT PUSH2 0x1D2 JUMPI DUP3 SWAP1 SUB PUSH1 0x1F AND DUP3 ADD SWAP2 JUMPDEST POP POP POP POP POP DUP2 MSTORE POP POP DUP2 MSTORE PUSH1 0x20 ADD SWAP1 PUSH1 0x1 ADD SWAP1 PUSH2 0xB8 JUMP JUMPDEST POP POP POP POP SWAP1 POP SWAP2 SWAP1 POP JUMP JUMPDEST CALLER PUSH0 SWAP1 DUP2 MSTORE PUSH1 0x20 DUP2 DUP2 MSTORE PUSH1 0x40 DUP1 DUP4 KECCAK256 DUP2 MLOAD DUP1 DUP4 ADD SWAP1 SWAP3 MSTORE DUP6 DUP3 MSTORE DUP2 DUP4 ADD DUP6 SWAP1 MSTORE DUP1 SLOAD PUSH1 0x1 DUP2 ADD DUP3 SSTORE SWAP1 DUP5 MSTORE SWAP2 SWAP1 SWAP3 KECCAK256 DUP3 MLOAD PUSH1 0x2 SWAP1 SWAP3 MUL ADD SWAP1 DUP2 SWAP1 PUSH2 0x256 SWAP1 DUP3 PUSH2 0x4DD JUMP JUMPDEST POP PUSH1 0x20 DUP3 ADD MLOAD PUSH1 0x1 DUP3 ADD SWAP1 PUSH2 0x26B SWAP1 DUP3 PUSH2 0x4DD JUMP JUMPDEST POP POP POP POP POP JUMP JUMPDEST PUSH0 PUSH1 0x20 DUP3 DUP5 SUB SLT ISZERO PUSH2 0x282 JUMPI PUSH0 DUP1 REVERT JUMPDEST DUP2 CALLDATALOAD PUSH20 0xFFFFFFFFFFFFFFFFFFFFFFFFFFFFFFFFFFFFFFFF DUP2 AND DUP2 EQ PUSH2 0x2A5 JUMPI PUSH0 DUP1 REVERT JUMPDEST SWAP4 SWAP3 POP POP POP JUMP JUMPDEST PUSH0 DUP2 MLOAD DUP1 DUP5 MSTORE DUP1 PUSH1 0x20 DUP5 ADD PUSH1 0x20 DUP7 ADD MCOPY PUSH0 PUSH1 0x20 DUP3 DUP7 ADD ADD MSTORE PUSH1 0x20 PUSH1 0x1F NOT PUSH1 0x1F DUP4 ADD AND DUP6 ADD ADD SWAP2 POP POP SWAP3 SWAP2 POP POP JUMP JUMPDEST PUSH0 PUSH1 0x20 DUP1 DUP4 ADD DUP2 DUP5 MSTORE DUP1 DUP6 MLOAD DUP1 DUP4 MSTORE PUSH1 0x40 SWAP3 POP PUSH1 0x40 DUP7 ADD SWAP2 POP PUSH1 0x40 DUP2 PUSH1 0x5 SHL DUP8 ADD ADD DUP5 DUP9 ADD PUSH0 JUMPDEST DUP4 DUP2 LT ISZERO PUSH2 0x351 JUMPI DUP9 DUP4 SUB PUSH1 0x3F NOT ADD DUP6 MSTORE DUP2 MLOAD DUP1 MLOAD DUP8 DUP6 MSTORE PUSH2 0x325 DUP9 DUP7 ADD DUP3 PUSH2 0x2AC JUMP JUMPDEST SWAP2 DUP10 ADD MLOAD DUP6 DUP4 SUB DUP7 DUP12 ADD MSTORE SWAP2 SWAP1 POP PUSH2 0x33D DUP2 DUP4 PUSH2 0x2AC JUMP JUMPDEST SWAP7 DUP10 ADD SWAP7 SWAP5 POP POP POP SWAP1 DUP7 ADD SWAP1 PUSH1 0x1 ADD PUSH2 0x301 JUMP JUMPDEST POP SWAP1 SWAP9 SWAP8 POP POP POP POP POP POP POP POP JUMP JUMPDEST PUSH4 0x4E487B71 PUSH1 0xE0 SHL PUSH0 MSTORE PUSH1 0x41 PUSH1 0x4 MSTORE PUSH1 0x24 PUSH0 REVERT JUMPDEST PUSH0 DUP3 PUSH1 0x1F DUP4 ADD SLT PUSH2 0x382 JUMPI PUSH0 DUP1 REVERT JUMPDEST DUP2 CALLDATALOAD PUSH8 0xFFFFFFFFFFFFFFFF DUP1 DUP3 GT ISZERO PUSH2 0x39D JUMPI PUSH2 0x39D PUSH2 0x35F JUMP JUMPDEST PUSH1 0x40 MLOAD PUSH1 0x1F DUP4 ADD PUSH1 0x1F NOT SWAP1 DUP2 AND PUSH1 0x3F ADD AND DUP2 ADD SWAP1 DUP3 DUP3 GT DUP2 DUP4 LT OR ISZERO PUSH2 0x3C5 JUMPI PUSH2 0x3C5 PUSH2 0x35F JUMP JUMPDEST DUP2 PUSH1 0x40 MSTORE DUP4 DUP2 MSTORE DUP7 PUSH1 0x20 DUP6 DUP9 ADD ADD GT ISZERO PUSH2 0x3DD JUMPI PUSH0 DUP1 REVERT JUMPDEST DUP4 PUSH1 0x20 DUP8 ADD PUSH1 0x20 DUP4 ADD CALLDATACOPY PUSH0 PUSH1 0x20 DUP6 DUP4 ADD ADD MSTORE DUP1 SWAP5 POP POP POP POP POP SWAP3 SWAP2 POP POP JUMP JUMPDEST PUSH0 DUP1 PUSH1 0x40 DUP4 DUP6 SUB SLT ISZERO PUSH2 0x40D JUMPI PUSH0 DUP1 REVERT JUMPDEST DUP3 CALLDATALOAD PUSH8 0xFFFFFFFFFFFFFFFF DUP1 DUP3 GT ISZERO PUSH2 0x424 JUMPI PUSH0 DUP1 REVERT JUMPDEST PUSH2 0x430 DUP7 DUP4 DUP8 ADD PUSH2 0x373 JUMP JUMPDEST SWAP4 POP PUSH1 0x20 DUP6 ADD CALLDATALOAD SWAP2 POP DUP1 DUP3 GT ISZERO PUSH2 0x445 JUMPI PUSH0 DUP1 REVERT JUMPDEST POP PUSH2 0x452 DUP6 DUP3 DUP7 ADD PUSH2 0x373 JUMP JUMPDEST SWAP2 POP POP SWAP3 POP SWAP3 SWAP1 POP JUMP JUMPDEST PUSH1 0x1 DUP2 DUP2 SHR SWAP1 DUP3 AND DUP1 PUSH2 0x470 JUMPI PUSH1 0x7F DUP3 AND SWAP2 POP JUMPDEST PUSH1 0x20 DUP3 LT DUP2 SUB PUSH2 0x48E JUMPI PUSH4 0x4E487B71 PUSH1 0xE0 SHL PUSH0 MSTORE PUSH1 0x22 PUSH1 0x4 MSTORE PUSH1 0x24 PUSH0 REVERT JUMPDEST POP SWAP2 SWAP1 POP JUMP JUMPDEST PUSH1 0x1F DUP3 GT ISZERO PUSH2 0x4D8 JUMPI DUP1 PUSH0 MSTORE PUSH1 0x20 PUSH0 KECCAK256 PUSH1 0x1F DUP5 ADD PUSH1 0x5 SHR DUP2 ADD PUSH1 0x20 DUP6 LT ISZERO PUSH2 0x4B9 JUMPI POP DUP1 JUMPDEST PUSH1 0x1F DUP5 ADD PUSH1 0x5 SHR DUP3 ADD SWAP2 POP JUMPDEST DUP2 DUP2 LT ISZERO PUSH2 0x26B JUMPI PUSH0 DUP2 SSTORE PUSH1 0x1 ADD PUSH2 0x4C5 JUMP JUMPDEST POP POP POP JUMP JUMPDEST DUP2 MLOAD PUSH8 0xFFFFFFFFFFFFFFFF DUP2 GT ISZERO PUSH2 0x4F7 JUMPI PUSH2 0x4F7 PUSH2 0x35F JUMP JUMPDEST PUSH2 0x50B DUP2 PUSH2 0x505 DUP5 SLOAD PUSH2 0x45C JUMP JUMPDEST DUP5 PUSH2 0x494 JUMP JUMPDEST PUSH1 0x20 DUP1 PUSH1 0x1F DUP4 GT PUSH1 0x1 DUP2 EQ PUSH2 0x53E JUMPI PUSH0 DUP5 ISZERO PUSH2 0x527 JUMPI POP DUP6 DUP4 ADD MLOAD JUMPDEST PUSH0 NOT PUSH1 0x3 DUP7 SWAP1 SHL SHR NOT AND PUSH1 0x1 DUP6 SWAP1 SHL OR DUP6 SSTORE PUSH2 0x595 JUMP JUMPDEST PUSH0 DUP6 DUP2 MSTORE PUSH1 0x20 DUP2 KECCAK256 PUSH1 0x1F NOT DUP7 AND SWAP2 JUMPDEST DUP3 DUP2 LT ISZERO PUSH2 0x56C JUMPI DUP9 DUP7 ADD MLOAD DUP3 SSTORE SWAP5 DUP5 ADD SWAP5 PUSH1 0x1 SWAP1 SWAP2 ADD SWAP1 DUP5 ADD PUSH2 0x54D JUMP JUMPDEST POP DUP6 DUP3 LT ISZERO PUSH2 0x589 JUMPI DUP8 DUP6 ADD MLOAD PUSH0 NOT PUSH1 0x3 DUP9 SWAP1 SHL PUSH1 0xF8 AND SHR NOT AND DUP2 SSTORE JUMPDEST POP POP PUSH1 0x1 DUP5 PUSH1 0x1 SHL ADD DUP6 SSTORE JUMPDEST POP POP POP POP POP POP JUMP INVALID LOG2 PUSH5 0x6970667358 0x22 SLT KECCAK256 SMOD DUP7 TSTORE 0xFC 0xA6 0xEA 0xDE SWAP11 0xE2 0xC0 PUSH12 0xB6FCF5A8023BA329BA8E5711 0xD2 CALLDATASIZE 0xE1 0xBD 0xD3 0xD PUSH30 0xF0B664736F6C634300081900330000000000000000000000000000000000 "
    },
    "gasEstimates": {
      "creation": {
        "codeDepositCost": "298200",
        "executionCost": "335",
        "totalCost": "298535"
      },
      "external": {
        "addInputFile(string,string)": "infinite",
        "getUserFiles(address)": "infinite"
      }
    },
    "methodIdentifiers": {
      "addInputFile(string,string)": "eb613271",
      "getUserFiles(address)": "1fc37922"
    }
  },
  "storageLayout": {
    "storage": [
      {
        "astId": 12,
        "contract": "doctor.sol:Doctor",
        "label": "userFiles",
        "offset": 0,
        "slot": "0",
        "type": "t_mapping(t_address,t_array(t_struct(FileData)6_storage)dyn_storage)"
      }
    ],
    "types": {
      "t_address": {
        "encoding": "inplace",
        "label": "address",
        "numberOfBytes": "20"
      },
      "t_array(t_struct(FileData)6_storage)dyn_storage": {
        "base": "t_struct(FileData)6_storage",
        "encoding": "dynamic_array",
        "label": "struct Doctor.FileData[]",
        "numberOfBytes": "32"
      },
      "t_mapping(t_address,t_array(t_struct(FileData)6_storage)dyn_storage)": {
        "encoding": "mapping",
        "key": "t_address",
        "label": "mapping(address => struct Doctor.FileData[])",
        "numberOfBytes": "32",
        "value": "t_array(t_struct(FileData)6_storage)dyn_storage"
      },
      "t_string_storage": {
        "encoding": "bytes",
        "label": "string",
        "numberOfBytes": "32"
      },
      "t_struct(FileData)6_storage": {
        "encoding": "inplace",
        "label": "struct Doctor.FileData",
        "members": [
          {
            "astId": 3,
            "contract": "doctor.sol:Doctor",
            "label": "fileCID",
            "offset": 0,
            "slot": "0",
            "type": "t_string_storage"
          },
          {
            "astId": 5,
            "contract": "doctor.sol:Doctor",
            "label": "outcome",
            "offset": 0,
            "slot": "1",
            "type": "t_string_storage"
          }
        ],
        "numberOfBytes": "64"
      }
    }
  },
  "userdoc": {
    "kind": "user",
    "methods": {},
    "version": 1
  }
}